:1000000071C000008EC000008CC000008AC00000DB
:1000100088C0000086C0000084C0000082C00000CC
:1000200080C000007EC000007CC000007AC00000DC
:1000300078C0000076C0000074C0000072C00000EC
:1000400070C000006EC000006CC000006AC00000FC
:1000500068C0000066C0000064C0000062C000000C
:1000600060C000005EC000005CC000005AC000001C
:1000700058C0000056C0000054C0000052C000002C
:1000800050C000004EC000004CC000004AC000003C
:1000900048C0000046C0000044C0000042C000004C
:1000A00040C000003FC000003CC000003AC000005B
:1000B00038C0000036C000004EC0000032C0000052
:1000C00030C000002EC000002CC000002AC000007C
:1000D00028C0000026C0000024C0000022C000008C
:1000E00020C0000011241FBECFEFD1E2DEBFCDBF84
:1000F00000E00CBF12E0A0E0B2E0E6E3F5E000E0D3
:100100000BBF02C007900D92A230B107D9F722E0D1
:10011000A2E0B2E001C01D92AC31B207E1F7E8D035
:1001200008C26ECF1F920F920FB60F9211240BB61A
:100130000F928F93EF93FF93E1E2F1E08081826071
:100140008083FF91EF918F910F900BBE0F900FBEA8
:100150000F901F9018951F920F920FB60F921124B7
:100160000BB60F922F933F934F935F936F937F93B1
:100170008F939F93AF93BF93CF93DF93EF93FF93AF
:10018000E0912601F0912701F0931302E09312020F
:10019000CF0160E177E2A6D1462F60930F02709302
:1001A0001002C8EED3E0BE019DD1362F60930D0240
:1001B00070930E02CF01BE0195D1C4E6D0E0BE011E
:1001C00091D1262F60930B0270930C02CF01BE01D8
:1001D00089D16AE070E086D16093090270930A02C7
:1001E0008093070290930802E4E1F2E0405D4083CF
:1001F000305D3183205D2283605D6383805D848315
:100200001582E1E2F1E080818D7F808310922501EB
:1002100010922401FF91EF91DF91CF91BF91AF91A7
:100220009F918F917F916F915F914F913F912F910E
:100230000F900BBE0F900FBE0F901F9018959093CC
:10024000D5008093D400E1EDF0E080818860808368
:100250000895E0E8F0E0808182688083E1E8F0E0E2
:1002600080818A6180838CE29AE1909387008093F9
:10027000860088E09CE09093890080938800089530
:10028000009719F0059731F00EC016BC85B5887F30
:1002900085BD09C01092250110922401E1E2F1E030
:1002A0008081887F80836115710521F0611571401F
:1002B00029F0089585B5816085BD089585B5846070
:1002C00085BD089560E071E080E090E0D9DF86B5FB
:1002D000811108C0EBE0F1E080818064808386B505
:1002E0008823D1F3EBE0F1E080818F7B8083089558
:1002F00078948FEF84B9CAE0D1E0888184648883E0
:1003000015B8EBE0F1E08081806A8083A2DF88810C
:100310008F75888385B78F7E85BF87E690E08FDFF6
:10032000E1E9F0E080818560808310929500109271
:100330009400E4E0F1E080818D7F8083ECE6F0E0E2
:10034000808184608083E1EAF0E080818064808342
:10035000E2E7F0E0808180628083E3E7F0E0808183
:1003600080628083109206021092050210920402AD
:10037000109203020F2EF4E9CF2ED12CF02D09E0BC
:1003800011E0C8E8D0E00F2EF8ED6F2EF4E07F2EDC
:10039000F02D0F2EF8E0AF2EFCE0BF2EF02D0F2E2B
:1003A000F6E2EF2EFF24F394F02D552453948ADFC8
:1003B000F6018081918189399A4318F0F601118202
:1003C0001082F801808188231CF05092110205C030
:1003D00080911102882309F47CC07982688272DFDF
:1003E000FFEF29E688E1F15020408040E1F700C0AE
:1003F0000000888099809DEE891693E199060CF0A3
:1004000066C0F801808185FF05C007C0F8018081C2
:1004100085FD03C0B982A8825AC054DF8FE19EE4F3
:100420000197F1F700C00000F701808191818031D0
:100430009E40C0F42FEF89EF90E021508040904023
:10044000E1F700C000005092020280910002882370
:1004500099F1888199819093060280930502109208
:1004600000022AC080910202882321F188819981AB
:1004700090930402809303022091050230910602BA
:100480004091030250910402421B530BCA0199236D
:100490000CF4019695958795820F931F9983888315
:1004A000F801808185FDE8CFB982A88210921102FF
:1004B000109202025092000299828882F7E08F0E19
:1004C000911C2DEE821623E192060CF49FCF109220
:1004D0001102F801808185FD6ACFB982A88210924D
:1004E000110263CF97FB072E16F4009406D077FD18
:1004F00008D00BD007FC05D03EF4909581959F4F16
:100500000895709561957F4F0895AA1BBB1B51E11B
:1005100007C0AA1FBB1FA617B70710F0A61BB70B73
:10052000881F991F5A95A9F780959095BC01CD0118
:060530000895F894FFCFCE
:020536000100C2
:00000001FF
