S0120000526F626F74696341726D2E7372656320
S113000071C000008EC000008CC000008AC00000D7
S113001088C0000086C0000084C0000082C00000C8
S113002080C000007EC000007CC000007AC00000D8
S113003078C0000076C0000074C0000072C00000E8
S113004070C000006EC000006CC000006AC00000F8
S113005068C0000066C0000064C0000062C0000008
S113006060C000005EC000005CC000005AC0000018
S113007058C0000056C0000054C0000052C0000028
S113008050C000004EC000004CC000004AC0000038
S113009048C0000046C0000044C0000042C0000048
S11300A040C000003FC000003CC000003AC0000057
S11300B038C0000036C0000072C0000032C000002A
S11300C030C000002EC000002CC000002AC0000078
S11300D028C0000026C0000024C0000022C0000088
S11300E020C0000011241FBECFEFD1E2DEBFCDBF80
S11300F000E00CBF12E0A0E0B2E0ECE2F7E000E0C8
S11301000BBF02C007900D92AA30B107D9F722E0C5
S1130110AAE0B2E001C01D92A332B207E1F712D106
S113012003C36ECF1F920F920FB60F9211240BB61A
S11301300F928F93EF93FF93E1E2F1E0808182606D
S11301408083FF91EF918F910F900BBE0F900FBEA4
S11301500F901F9018959093D5008093D400E1EDF3
S1130160F0E080818860808308959091D00095FDAF
S113017005C0E0EDF0E0908195FFFDCF8093D600BF
S11301800895CF93DF93EC018881882329F0219689
S1130190ECDF89918111FCCFDF91CF9108951F92FB
S11301A00F920FB60F9211240BB60F922F933F9319
S11301B04F935F936F937F938F939F93AF93BF936B
S11301C0CF93DF93EF93FF93609126017091270102
S11301D080E090E091D12DEB37E346E055E3F2D196
S11301E06093140270931502809316029093170281
S11301F020E030E04AE754E4E5D120E030E04CE28E
S113020053E4E0D148D1FB0170931A0260931902C0
S1130210CB0160E177E261D2462F609312027093C2
S11302201302C8EED3E0BE0158D2362F60931002F9
S113023070931102CF01BE0150D2C4E6D0E0BE01DA
S11302404CD2262F60930E0270930F02CF01BE0191
S113025044D26AE070E041D260930C0270930D02C4
S113026080930A0290930B02EBE1F2E0405D40833D
S1130270305D31839EE29283205D2383605D6483DD
S1130280805D85838DE68683178280E092E079DF46
S11302908BE192E076DFE1E2F1E080818D7F808383
S11302A01092250110922401FF91EF91DF91CF91DB
S11302B0BF91AF919F918F917F916F915F914F917A
S11302C03F912F910F900BBE0F900FBE0F901F9078
S11302D01895E0E8F0E0808182688083E1E8F0E04E
S11302E080818A6180838FE79EE390938700809367
S11302F0860088E09CE090938900809388000895AC
S1130300009719F0059731F00EC016BC85B5887FAB
S113031085BD09C01092250110922401E1E2F1E0AB
S11303208081887F80836115710521F0611571409A
S113033029F0089585B5816085BD089585B58460EB
S113034085BD089578948FEF84B9CAE0D1E088819F
S11303508464888315B8EBE0F1E08081806A80834F
S1130360B8DF88818F75888385B78F7E85BF87E6E0
S113037090E0F1DEE4E0F1E080818D7F8083ECE6C3
S1130380F0E0808184608083E1EAF0E08081806431
S11303908083E2E7F0E0808180628083E3E7F0E03D
S11303A08081806280830F2EF9E0AF2EBB24B3944A
S11303B0F02D08E810E00F2EF8EDCF2EF4E0DF2E3C
S11303C0F02D0F2EF8E0EF2EFCE0FF2EF02D9924F7
S11303D09394CBE0D1E0F501808188231CF09092C6
S11303E0180204C080911802882371F1F801D182A7
S11303F0C082FFEF23EC89E0F15020408040E1F718
S113040000C00000F801808191818D3EF3E19F07D7
S1130410DCF4F501208125FF05C008C0F501208129
S113042025FD04C0F801F182E0820EC0F801918339
S11304308083EFEEF0E03197F1F700C00000019601
S11304408D3EF3E19F0751F710921802F501808168
S113045085FD06C015B8F801F182E08210921802F9
S113046060E071E080E090E04BDF86B5811106C06A
S113047088818064888386B58823D1F388818F7BC3
S11304808883FFEF25EA8EE0F15020408040E1F7B9
S113049000C00000A0CF04D06894B1118DC00895AD
S11304A070D088F09F5790F0B92F9927B751A0F0DA
S11304B0D1F0660F771F881F991F1AF0BA95C9F7F4
S11304C012C0B13081F077D0B1E0089574C0672FC5
S11304D0782F8827B85F39F0B93FCCF386957795A4
S11304E06795B395D9F73EF490958095709561958D
S11304F07F4F8F4F9F4F0895E89409C097FB3EF4B8
S113050090958095709561957F4F8F4F9F4F99235C
S1130510A9F0F92F96E9BB279395F69587957795DA
S11305206795B795F111F8CFFAF4BB0F11F460FF9A
S11305301BC06F5F7F4F8F4F9F4F16C0882311F0F2
S113054096E911C0772321F09EE8872F762F05C006
S1130550662371F096E8862F70E060E02AF09A95A1
S1130560660F771F881FDAF7880F9695879597F996
S1130570089557FD9058440F551F59F05F3F71F08F
S11305804795880F97FB991F61F09F3F79F08795F6
S11305900895121613061406551FF2CF4695F1DF7F
S11305A008C0161617061806991FF1CF869571050F
S11305B0610508940895E894BB2766277727CB0143
S11305C097F908950BD078C069D028F06ED018F050
S11305D0952309F05AC05FC01124EECFCADFA0F3FF
S11305E0959FD1F3950F50E0551F629FF001729FC4
S11305F0BB27F00DB11D639FAA27F00DB11DAA1FE3
S1130600649F6627B00DA11D661F829F2227B00D2F
S1130610A11D621F739FB00DA11D621F839FA00DBA
S1130620611D221F749F3327A00D611D231F849F0A
S1130630600D211D822F762F6A2F11249F57504061
S11306408AF0E1F088234AF0EE0FFF1FBB1F661FFC
S1130650771F881F91505040A9F79E3F510570F0B5
S113066014C0AACF5F3FECF3983EDCF386957795F0
S11306706795B795F795E7959F5FC1F7FE2B880FB0
S1130680911D9695879597F9089597F99F6780E846
S113069070E060E008959FEF80EC089500240A94D0
S11306A01616170618060906089500240A94121649
S11306B01306140605060895092E0394000C11F47C
S11306C0882352F0BB0F40F4BF2B11F460FF04C029
S11306D06F5F7F4F8F4F9F4F089597FB072E16F440
S11306E0009406D077FD08D00BD007FC05D03EF46B
S11306F0909581959F4F0895709561957F4F0895CA
S1130700AA1BBB1B51E107C0AA1FBB1FA617B70733
S113071010F0A61BB70B881F991F5A95A9F780954F
S10F07209095BC01CD010895F894FFCF22
S10D072C64697374616E6361200058
S9030000FC
